:020000040800F2
:100000000006002005010008FB270008E71F000884
:10001000F9270008DB0A00085D2D00080000000039
:10002000000000000000000000000000352800086B
:10003000DD0A000800000000FD2700088D280008E8
:100040001F0100081F0100081F0100081F01000810
:100050001F0100081F0100081F0100081F01000800
:100060001F0100081F0100081F0100081F010008F0
:100070001F0100081F0100081F0100081F010008E0
:100080001F0100081F0100081F0100081F010008D0
:100090001F0100081F0100081F010008DF0A0008F7
:1000A0001F0100081F0100081F0100081F010008B0
:1000B000F12800081F010008FD2800081F010008A2
:1000C0001F0100081F0100081F0100081F01000890
:1000D0001F010008512D00081F0100081F01000822
:1000E0001F0100081F0100081F010008DFF810D0E1
:1000F00000F090FC0048004701490008AFF3008081
:10010000000600200648804706480047FEE7FEE755
:10011000FEE7FEE7FEE7FEE7FEE7FEE7FEE7FEE7B7
:10012000EF280008ED0000082DE9F0410024061B2F
:10013000254671F1000605DA01240027D0EB0700FF
:1001400067EB0101161E73F1000605DA0027D2EBFA
:100150000702012567EB030300F05EFB86460E46AF
:1001600017469C46AC4204D00025D0EB050E65EB4B
:10017000010624B10020D2EB000760EB030C7046AF
:1001800031463A466346BDE8F081202A04DB203A36
:1001900021FA02F00021704721FA02F3D040C2F1A7
:1001A00020029140084319467047D2B201E000F89E
:1001B000012B491EFBD270470022F6E710B513460B
:1001C0000A4604461946FFF7F0FF204610BD30B539
:1001D00004460020034600E05B1C934203D2E05C2F
:1001E000CD5C401BF8D030BDF0B480EA0102D40FE2
:1001F0004200B2EB410F02D20246084611464A00C5
:1002000042D0C30DDDB2C1F3C752AD1A202D35DA8D
:10021000C1F3160141F4000204B15242C5F12006B7
:1002200002FA06F12A411044B3EBD05F23D0C4B1E7
:10023000012DA0EBC35009DCF0BC4FF0004202EAF4
:10024000C352DBB200F5000000F041BB400000F1FA
:10025000807000EBC350A0F1807040EAD17049007B
:1002600009E0490841EAC071A0EBC35000F5000065
:10027000400800EBC350F0BC00F020BB61420122FB
:1002800002EB4101001BF6E7F0BC704781F0004132
:10029000AAE780F00040A7E780EA010210B502F06B
:1002A0000043400022D04A001FD0010E01EB126132
:1002B000C0F35600C2F3560240F4000042F40002BC
:1002C000A0FB022000047F39140400D0401C50EA37
:1002D000124001D44000491EC2B20C0604EBD010FB
:1002E000401C4008802A02D003E0002010BD20F00E
:1002F0000100002900DA0020184310BD30B480EA64
:10030000010202F0004530F0004221F0004013D01D
:1003100090B1C30DD40DC2F31601C0F31600E41A58
:1003200041F4000140F400027D34914201D3641C89
:1003300000E04900002C02DA30BC002070474FF486
:1003400000000023914201D3891A034340084FEA79
:100350004101F7D151B1914202D14FF0004105E086
:1003600002D24FF0010101E06FF0010103EBC45034
:10037000284430BC00F0A2BA420005D0C0F3C752F6
:100380005242914201DC0020704700EBC15070479F
:100390002DE9FE4F804681EA0300C00F0C46009015
:1003A00021F0004123F00045B8EB0200A94105D23D
:1003B0004046214690461C460B46024623F000402C
:1003C000104347D0270DC7F30A00C3F30A51029028
:1003D000401A019040286BDAC3F3130040F4801BED
:1003E0000098924620B10023D2EB030A63EB0B0B7B
:1003F00001985946C0F14002504600F03EFA0646C8
:100400000D4650465946019A00F046FA10EB080096
:100410006141002487EA115284EAE7731A4340D00D
:10042000009A62B3019A012A4FEA075215DC001BB9
:1004300061EB02014FF0004202EA0752CDE90042AF
:10044000001C41F5801132462B4600F07DFA03B0C6
:10045000BDE8F08F40462146F9E7001B61EB020141
:10046000001C41F5801300185B412018A2F500170D
:1004700047EB030140EAD570B6196D4111E06D08F4
:100480004FEA360645EAC0754FEA0752001B61EB9A
:100490000201001C41F5801149084FEA30000019A3
:1004A000514132462B4603B0BDE8F04F00F03DBA53
:1004B0000098012240000023D0EB020263EBE073BE
:1004C000009821464FEAE074B8EB000061EB0401AC
:1004D000E9E783F000435BE781F0004158E72DE94D
:1004E000FE4F81EA030404F0004421F0004100942F
:1004F0004FF0000B23F0004350EA01045ED052EAB3
:1005000003045BD0C3F30A54C1F30A552C44A4F28C
:10051000F3340194A0FB0254C1F3130141F48011A0
:10052000C3F3130343F4801301FB024400FB034EA7
:10053000840A970A44EA815447EA8357A4FB076870
:1005400002958D0A05FB07854FEA932C04FB0C549A
:100550002705029D4FEA065847EA1637B5EB08050E
:100560006EEB070C870E920E47EA811742EA831260
:10057000A7FB0201B6EB0B0164EB00042B0D43EA71
:100580000C335E1844EB1C50DA465146E7FB02017F
:10059000C5F313044FEA0B3343EA14534FEA043212
:1005A000019C43EA0603A4F10C040294009CCDE9EB
:1005B00000B400F0C9F903B0BDE8F08F0020014697
:1005C000F9E72DE9F04D81EA030404F0004B21F036
:1005D000004514464FF0000A23F0004150EA05029E
:1005E00020D054EA01021DD0C5F30A570246C5F3D4
:1005F0001303C1F31300C1F30A5640F4801543F40A
:100600008013A7EB0608101BD64608F2FD3873EBE3
:10061000050002D308F1010801E092185B41B8F12E
:10062000000F03DA00200146BDE8F08D00204FF4F2
:100630008011064684460EE0171B73EB050705D3B1
:10064000121B63EB050306434CEA010C49084FEA11
:10065000300092185B4150EA0107EDD152EA0300E5
:1006600012D082EA040083EA0501084305D0101B7A
:10067000AB4106D20122002306E000224FF00043E6
:1006800002E06FF0010253101AEB06004CEB085128
:1006900010EB0A0041EB0B01BDE8F04D00F045B94D
:1006A00070B521F0004303430CD0C1F30A55002478
:1006B000D5EB040564EB0403D617AD1AB34102DB96
:1006C0000020014670BD201841EB025170BDC10FE2
:1006D00080EAE0700844CA079623002100F0F7B8CA
:1006E00096230022114600F0F2B80EB5C10F80EA41
:1006F000E0700844CA07002140F233438DE80E0041
:100700000A460B4600F020F903B000BD00F000429D
:1007100020F00040C10DC0F3160040F400007F2916
:1007200001DA00207047962903DCC1F19601C84028
:1007300001E096398840002AF4D04042704720F00A
:100740000040C10DC0F3160040F400007F2901DA1B
:1007500000207047962903DCC1F19601C84070471C
:1007600096398840704770B5C1F30A5201F00045D0
:100770000024C1F3130140F2FF3341F480119A4287
:1007800001DA002070BD40F233439A42A2F23342B4
:1007900003DC5242FFF7F9FC00E090402C43F1D01B
:1007A000404270BD00F0004230F000400AD0C10D60
:1007B00001F56071C0F3160042EA0151C20840071A
:1007C0001143704700200146704701F0004330B4E8
:1007D00021F0004150EA010206D00A0DA2F5607234
:1007E000C1F31301002A02DC30BC00207047440F23
:1007F00044EAC104C100E01830BC00EBC25000F074
:100800005DB80000002801DBC0F10040002901DBD9
:10081000C1F10041884270472DE9F05F0546002094
:1008200092469B4688460646814640241BE0284661
:10083000414647462246FFF7A8FC53465A46C01A8F
:10084000914110D311461846224600F016F82D1A91
:1008500067EB01084F4622460120002100F00DF809
:1008600017EB00094E41201EA4F10104DFDC4846CD
:1008700031462A464346BDE8F09F202A04DB203A51
:1008800000FA02F1002070479140C2F1200320FAE3
:1008900003F3194390407047202A06DBCB17203A18
:1008A00041FA02F043EAE07306E041FA02F3D04075
:1008B000C2F1200291400843194670470029A8BFA1
:1008C0007047401C490008BF20F00100704710B479
:1008D000B0FA80FC00FA0CF050EA010404BF10BC2E
:1008E000704749B1CCF1200421FA04F411FA0CF15B
:1008F00018BF012121430843A3EB0C01CB1D4FEA94
:1009000000614FEA102042BF002010BC704700EB8E
:10091000C35010440029A4BF10BC7047401C4900BC
:1009200008BF20F0010010BC704710B5141E73F111
:10093000000408DA401C41F1000192185B411A439F
:1009400001D120F0010010BD2DE9F04D92469B46EB
:1009500011B1B1FA81F202E0B0FA80F22032904691
:10096000FFF78BFF04460F4640EA0A0041EA0B01FD
:1009700053465A46084313D0114653EA010019D092
:10098000C8F140025046FFF700FC05460E465046AF
:1009900059464246FFF771FF084305D0012004E0A5
:1009A00020463946BDE8F08D0020054346EAE07652
:1009B0002C4337430A986305E40AA0EB08000022A1
:1009C000FD0A44EA47540A3002D500200146E9E70F
:1009D000010510196941DDE9084500196941BDE8C3
:1009E000F04DA2E730B5041E71F1000404DB4FF0B6
:1009F0000044404264EB0101141E73F1000405DB66
:100A00001C464FF00043524263EB04038B4208BF85
:100A1000824230BD064C074D06E0E06840F001031D
:100A200094E8070098471034AC42F6D3FFF762FB16
:100A300070690008906900082DE9F04D00231A46FE
:100A40001B1A8A4103DB00200146BDE8F08DC1F38B
:100A50000A52C1F3130141F480154FF0000BD10786
:100A600002D100186D41521E0027044640F2FF11CA
:100A7000384601EB620A3E468046024600204FF4AB
:100A80008011FFF782FBC2197141BB1846EB0100D0
:100A9000B4EB030C75EB000C04D3E41A65EB000512
:100AA00017460E46241908F101006D41804634288E
:100AB000E3DDF91946EB0600091BA84103D24FF00C
:100AC000FF32134601E0002213461BEB070046EB02
:100AD0000A51BDE8F04DFFF728BFFEE77047202020
:100AE00000F08AB872B6FEE710B590F82110002227
:100AF000022905D00421816380F82020012010BD47
:100B000001680B6823F00E030B6001680B6823F08B
:100B100001030B6090F84030C46B012101FA03F32C
:100B2000636080F8211080F82020104610BD00007E
:100B300010B590F821100024022903D0042181630C
:100B400001243DE001680A6822F00E020A60016893
:100B50000A6822F001020A601A4A0168914201D132
:100B6000012121E0174A1432914201D110211BE0EA
:100B7000144A2832914201D1891515E0114A3C32BC
:100B8000914201D189140FE00E4A5032914202D1B4
:100B90004FF4803108E00B4A6432914202D14FF4A5
:100BA000801101E04FF08071064A083A516001213E
:100BB00080F82110002180F82010416B01B1884796
:100BC000204610BD0800024010B520280FD1084C67
:100BD0006078401CC0B26070082806D100206070A8
:100BE0004FF40051034800F003F90120207010BDBC
:100BF0000000002000100140044910B50A680242BC
:100C000002D00860FFF7E0FF10BD000014040140AF
:100C10002DE9F84FDFF8B891002409F1040A0AF130
:100C2000040B23460F270BF1040EC9E00125A54054
:100C30002A40AA427DD1674ED1F804C0ACEB060829
:100C4000B44532D014DCBCF1030F3AD009DCBCF15E
:100C5000000F2AD0BCF1010F1CD0BCF1020F31D122
:100C60001DE0BCF1110F17D0BCF1120F2AD119E011
:100C7000B8F5881F19D006DCB8F5803F15D0B8F557
:100C8000801F1FD111E0B8F5001F0ED0B8F5041F6A
:100C900018D10AE0CB6815E0CB681B1D12E0CB68C9
:100CA00008330FE0CB680C330CE08B682BB1012BC1
:100CB0004FF0080303D0456104E0042302E005611E
:100CC00000E00023FF2A01D8064601E000F10406F7
:100CD0004FEA840501D9A5F12005D6F8008007FA6E
:100CE00005FC28EA0C0803FA05F548EA0508C6F8E9
:100CF00000804D68ED0062D5374DAE6946F00106C3
:100D0000AE61AD6924F0030605F001050095334D91
:100D100006EB050CDCF80850A607360F07FA06F8B4
:100D200025EA0805DFF8B880404503D14FF00008F8
:100D300017E044E0DFF8AC80404502D14FF00108F5
:100D40000FE0DFF8A480404502D14FF0020808E030
:100D5000DFF89880404502D14FF0030801E04FF0E2
:100D6000040808FA06F848EA0508CCF808804D6837
:100D7000D9F80060ED034D4601D5164300E09643D7
:100D80002E604D68DAF80060AD03554601D5164374
:100D900000E096432E604D68DBF80060ED025D4692
:100DA00001D5164300E096432E604D68DEF80060E2
:100DB000AD02754601D5164300E096432E60641CD3
:100DC0000D682A46E5407FF431AFBDE8F88F00009A
:100DD000000401400000111000100240000001401A
:100DE00000080140000C01400010014000140140C7
:100DF000C26821EA02030A4043EA024101617047E6
:100E00000AB1016170470904FBE7000001488068EE
:100E100070470000440000200248816802781144B5
:100E20008160704744000020074810B5016841F018
:100E300010010160032000F075F80F2000F006F8A3
:100E400000F024F8002010BD0020024070B50D4DC8
:100E500004464FF47A712878B1FBF0F00A4909682A
:100E6000B1FBF0F000F0F8FA48B9102C07D20022DC
:100E70002146501E00F036F800206C6070BD012045
:100E800070BD000044000020500000200C4808B550
:100E9000816941F001018161816901F001010091E5
:100EA000C16941F08051C161C06900F0805000907B
:100EB0000448416821F0E06141F00071416008BDE3
:100EC0000010024000000140002809DB00F01F0272
:100ED000012191404009800000F1E020C0F800119C
:100EE00070470000F0B40E4B1B680C46C3F302239E
:100EF000C3F10705042D00D90425191D072901D2C6
:100F0000002300E0DB1E012606FA05F1491E214000
:100F100099409E40761E16403143F0BC01F060BF00
:100F20000CED00E0064900F0070208684FF6FF03E9
:100F3000184040EA0220034A10430860704700004E
:100F40000CED00E00000FA052DE9F0470F46050022
:100F500061D0434E306800F00700B84209D23068D3
:100F600020F0070038433060306800F00700B842D6
:100F700051D128683B4C810712D5400703D56068E2
:100F800040F4E06060602878000703D5606840F4B2
:100F9000605060606068A96820F0F00008436060FD
:100FA0002878C00728D06868012810D02168022856
:100FB00010D0890700292EDA616821F0030101436E
:100FC0006160FFF723FF804641F288390DE0216818
:100FD0008903EFE78901EDE7FFF718FFA0EB0801B0
:100FE000494502D90320BDE8F0876068696800F0D0
:100FF0000C00B0EB810FEFD1306800F00700B84271
:101000000BD9306820F0070038433060306800F0BA
:101010000700B84201D00120E5E72878400705D550
:101020006068E96820F4E0600843606028780007A1
:1010300006D56068296920F4605040EAC10060600C
:1010400000F038F86168084AC1F30311515CC840E8
:101050000649086006480068FFF7F8FE0020C2E76E
:101060000020024000100240D05B00085000002029
:10107000480000200448054900684968044AC1F353
:101080000221515CC840704750000020001002400F
:10109000E05B00080448054900684968044AC1F358
:1010A000C221515CC840704750000020001002402F
:1010B000E05B000812A185B00FC98DE80F0014A0F5
:1010C000144A006804905168134801F00C03042B83
:1010D00010D0082B0ED1C1F38343C9031DF80300C0
:1010E0000AD5516804AAC1F34041515C0A4A5043F1
:1010F000B0FBF1F005B0704708494843FAE700003B
:1011000002030405060708090A0B0C0D0E0F101048
:10111000010200000010024000127A0000093D00A8
:101120002DE9F84F040070D02078C04DC00749D099
:101130006868C0F38100012807D06868C0F38100A7
:10114000022809D16868C00306D52868800339D50C
:1011500060680028E7D035E06068B0F5803F0BD0CC
:1011600010B1B0F5A02F11D0286820F4803028608D
:10117000286820F4802002E0286840F4803028604D
:10118000606890B1FFF742FE06460AE0286840F426
:1011900080202860F0E700BFFFF738FE801B64283E
:1011A00073D828688003F7D50CE0FFF72FFE0646BA
:1011B00005E000BFFFF72AFE801B6428F0D82868EE
:1011C0008003F7D420789A4E80074FF001094FF042
:1011D000000839D5686810F00C0F07D06868C0F3B4
:1011E0008100022809D16868C00306D428688007F6
:1011F00014D52069012808D110E02069B0B1C6F8E3
:101200000090FFF703FE074605E00AE1FFF7FEFD49
:10121000C01B0228C4D828688007F7D528686169F0
:1012200020F0F80040EAC10028600DE0C6F8008018
:10123000FFF7ECFD074604E0FFF7E8FDC01B0228BE
:1012400023D828688007F7D4207800072CD5794860
:10125000A169D9B1C0F80090FFF7D8FD074604E0B6
:10126000FFF7D4FDC01B02280FD8686A8007F7D5A6
:1012700071484FF4FA510068B0FBF1F0009000BFE4
:101280000098411E0091FAD20EE080E0C0F8008084
:10129000FFF7BCFD074604E0FFF7B8FDC01B0228BE
:1012A00075D8686A8007F7D42078400760D5E86968
:1012B0000027C00008D4E86940F08050E861E86980
:1012C000012700F0805000905C480168C90513D4E4
:1012D0000168834641F480710160FFF797FD824603
:1012E00006E000BFFFF792FDA0EB0A0064284ED88D
:1012F000DBF80000C005F5D5E06801280AD008B188
:10130000052813D0286A20F001002862286A20F0FE
:10131000040002E0286A40F001002862E06841F21F
:10132000883B98B1FFF772FD82460BE0286A40F0D7
:1013300004002862EEE700BFFFF768FDA0EB0A019A
:1013400059455AD8286A8007F6D50CE0FFF75EFDAC
:10135000824605E0FFF75AFDA0EB0A0159454CD83B
:10136000286A8007F6D41FB1E86920F08050E86150
:10137000E06988B36968C1F38101022944D0022879
:10138000C6F8608004D0FFF741FD044638E034E041
:10139000FFF73CFD074604E0FFF738FDC01B0228BD
:1013A0002BD828688001F7D4206AB0F5803F05D19A
:1013B0006868A16820F4003008436860D4E9080137
:1013C0000843696821F4741108436860C6F86090A6
:1013D000FFF71CFD044606E025E000BFFFF716FD01
:1013E000001B022809D828688001F7D51BE000BF40
:1013F000FFF70CFD001B022802D90320BDE8F88F7F
:1014000028688001F4D40EE00128F7D06868226AC9
:1014100000F48031914204D1616A00F47010884276
:1014200001D00120EAE70020E8E7000000100240B8
:101430000000424280044242500000200070004000
:101440004FF0E0210428086903D020F0040008616F
:10145000704740F00400FAE710B5401EB0F1807FFD
:1014600001D3012010BD4FF0E02460610F2160170F
:1014700001F0B6FC0020A06107202061002010BD13
:101480007047704710B590F83C20012A22D0012205
:1014900080F83C20CA688C6822F4407222434C6871
:1014A00022F4806222430C6822F4006222430C6919
:1014B00022F4805222434C6922F400522243C9692B
:1014C000002322F480420A4301684A6480F83C30D9
:1014D000002010BD022010BD70B590F83C20012AFC
:1014E00026D0012480F83C40022280F83D20036889
:1014F0005A689D6822F070060A6832435A600D4BA4
:1015000002689A4208D0B2F1804F05D00A4B9A4245
:1015100002D00A4B9A4204D1496825F0800319434E
:10152000916080F83D40002180F83C10084670BD75
:10153000022070BD002C0140000400400008004063
:1015400010B5040003D094F83D0010B107E001206D
:1015500010BD002084F83C00204600F01FF8022057
:1015600084F83D00211D206801F0CEF9012084F8A7
:10157000460084F83E0084F83F0084F8400084F878
:10158000410084F8420084F8430084F8440084F861
:10159000450084F83D00002010BD000008B500683B
:1015A0000649884208D10648816941F40061816199
:1015B000806900F40060009008BD0000002C01402C
:1015C0000010024070B5044690F83C00012817D086
:1015D000012584F83C50022084F83D002068826890
:1015E00022F0770222F47F4282600868502830D0CF
:1015F0000DDC20284DD005DC98B310283BD148E005
:10160000022070BD302844D0402834D139E0602811
:1016100028D0702806D0B0F5805F2CD0B0F5005FE0
:1016200029D10AE0CB68D1E90121206801F0AFF9A6
:101630002068816841F0770109E0CB68D1E9012198
:10164000206801F0A4F92068816841F4804181603C
:1016500011E0CA684968206801F04EFA50212068FC
:1016600007E016E0CA684968206801F056FA602170
:10167000206801F096F984F83D50002084F83C0081
:1016800070BDCA684968206801F036FA40212068B8
:10169000EFE7226801461046EBE72DE9F0410D46E1
:1016A000040003D094F83D0018B108E00120BDE823
:1016B000F081002084F83C00204600F041F8022030
:1016C00084F83D002068816844F2070291438160FC
:1016D000211D206801F018F9226890689169166A46
:1016E0002B68AF69034340F20330814341EA07218D
:1016F000A868EF6908434FF6FC418843E96840EA6F
:101700000720014328692F6A000140EA0730084397
:1017100069686D6926F0220646EA0515294393603B
:101720002268906154F8460B0162012004F81F09F9
:10173000E0752076E0762077A0750020B7E70000FE
:1017400000B585B0002100910191029103910168DB
:101750002248B1F1804F23D0214A91421ED1C16964
:1017600041F00401C161C16901F004010491816982
:1017700041F0080181618069694600F00800049029
:10178000C02000901748FFF743FA002202211E20D4
:10179000FFF7A8FB5FF01E00FFF796FB05B000BD4A
:1017A000C16941F00101C161C16901F00101049108
:1017B000816941F0040181618069694600F004009B
:1017C0000490032000900848FFF722FA002202212B
:1017D0001C20FFF787FB1C20DEE700000010024002
:1017E00000080040000C01400008014070B590F86E
:1017F0003E60044690F83F5090F8423090F8432005
:10180000022021B104290ED0012E1BD114E0012E9B
:1018100018D1012B16D184F83E0084F84200012231
:101820000021206820E0012D0CD1012A0AD184F882
:101830003F0084F8430014E0012D03D1012B01D1B6
:10184000012A01D0012070BD84F83E0084F83F00D9
:1018500084F8420084F8430001220021206801F04E
:1018600089F801220421206801F084F820680168C9
:1018700041F001010160002070BD704770B5044661
:10188000006801694FF00005C943890715D4C16894
:10189000C943890711D4E91E01610120207720681E
:1018A00080698007204602D0FFF7E7FF04E000F0E0
:1018B000BFF8204600F04EF9257720680169C9433A
:1018C000490717D4C168C943490713D46FF004010D
:1018D0000161022020772068806910F4407F204653
:1018E00002D0FFF7CAFF04E000F0A2F8204600F0A3
:1018F00031F9257720680169C943090716D4C16801
:10190000C943090712D46FF0080101610420207750
:101910002068C0698007204602D0FFF7AEFF04E0D0
:1019200000F086F8204600F015F925772068016957
:10193000C943C90617D4C168C943C90613D46FF097
:1019400010010161082020772068C06910F4407FF1
:10195000204602D0FFF791FF04E000F069F820462E
:1019600000F0F8F8257720680169C943C90708D154
:10197000C168C943C90704D1891E0161204600F02E
:1019800039F920680169C943090609D4C168C94306
:10199000090605D46FF0800101612046FFF770FD54
:1019A00020680169C943490609D4C168C943490689
:1019B00005D46FF040010161204600F01CF9206859
:1019C0000169C94389060BD4C168C943890607D494
:1019D0006FF0200101612046BDE87040FFF751BD66
:1019E00070BD000000B585B0002100910191029109
:1019F000039100680B49884212D10B48816941F07C
:101A0000040181618069694600F0040004904FF48C
:101A1000106000900220019003900448FFF7F8F84E
:101A200005B000BD002C014000100240000801403C
:101A3000704770B5044690F83C000D4601280AD066
:101A4000012084F83C0042B1042A18D0082A2AD088
:101A50000C2A4DD139E0022070BD206800F0AAFFA9
:101A60002068816941F0080181612068816921F065
:101A700004018161206881692A69114311E02068AD
:101A800000F0C0FF2068816941F400618161206835
:101A9000816921F480618161206881692A6941EA54
:101AA0000221816124E0206800F0D8FF2068C1692C
:101AB00041F00801C1612068C16921F00401C161E0
:101AC0002068C1692A69114311E0206800F0F2FF23
:101AD0002068C16941F40061C1612068C16921F4D5
:101AE0008061C1612068C1692A6941EA0221C1613E
:101AF000002084F83C0070BD10B5040003D094F8B9
:101B00003D0010B107E0012010BD002084F83C002A
:101B1000204600F01EF8022084F83D00211D2068B8
:101B200000F0F2FE012084F8460084F83E0084F8BC
:101B30003F0084F8400084F8410084F8420084F8B3
:101B4000430084F8440084F8450084F83D000020F8
:101B500010BD70477047000010B50446022249B11D
:101B600004290ED0082913D094F84100012816D07A
:101B7000012010BD94F83E000128F9D184F83E20E0
:101B80000FE094F83F000128F2D184F83F2008E0EC
:101B900094F840000128EBD184F8402001E084F85B
:101BA00041200122206800F0E5FE0F4920688842AC
:101BB00003D1426C42F4004242642068884208D05B
:101BC000B0F1804F05D00949884202D008498842C7
:101BD00004D1816801F00701062903D0016841F0B2
:101BE00001010160002010BD002C014000040040F4
:101BF000000800407047704770477047F8B50268AA
:101C000004461068D168536910F00F0F4FF00005BB
:101C100053D003F0010601F4907737435FD0C20739
:101C200005D0CA0503D5226C42F0010222644207A6
:101C300005D5DA0703D0226C42F002022264820743
:101C400005D5DA0703D0226C42F0040222640207B1
:101C500007D501F02002324303D0226C42F0080283
:101C60002264226C002A34D0800604D5880602D56E
:101C7000204600F099FF20684069216CC0F3801075
:101C8000090700D430B3204600F076FF2068416990
:101C900049061BD5416921F040014161A06BA8B103
:101CA00058494163A06BFEF743FF002811D0A06B99
:101CB000416B01B0BDE8F040084783060FD58B06A5
:101CC0000DD52046BDE8F84000F06EBF2046FFF776
:101CD00094FFF8BD2046FFF790FF2564F8BD266B02
:101CE0002023012E52D1C60650D5CE064ED51068FF
:101CF00050680090506940062AD5A16B086840687A
:101D00000004000CEAD0A68D8642E7D9E0858869F8
:101D1000202818D0D06820F48070D06020684169F5
:101D200021F0010141612068416921F040014161D8
:101D300084F83E3025632068C16821F01001C1603D
:101D4000A06BFEF7D1FEA08DE18D401A81B219E0A3
:101D5000A08DE18D401A81B2E08D0028BED000290F
:101D6000BCD0D06820F49070D0602068426922F026
:101D70000102426184F83E3025632068C26822F087
:101D80001002C2602046FFF737FFF8BD05062BD5CD
:101D90000D0629D594F83D002128F6D1A068B0F5AC
:101DA000805F01D12069B0B1206A411C21622168A5
:101DB00000784860E08C401E0004000CE084E4D110
:101DC0002068C16821F08001C1602068C16841F0CD
:101DD0004001C160F8BD206A0088C0F3080050606F
:101DE000206A801C2062E5E74006F3D54806F1D55D
:101DF000D168204621F04001D16084F83D3000F0E8
:101E0000F1F8F8BD692B000870B5040004D094F80F
:101E10003D00002510B106E0012070BD84F83C5063
:101E2000204600F023F8242084F83D002068C16893
:101E300021F40051C160204600F012FF20680169C2
:101E400021F4904101612068416921F02A0141613A
:101E50002068C16841F40051C1602564202084F8E5
:101E60003D0084F83E00002070BD000030B585B014
:101E70000024009401940294039400681849884255
:101E80002CD11848816941F480418161816901F454
:101E900080410491816941F0040181618069124DA2
:101EA00000F0040004904FF40070009002200190B4
:101EB0000320039069462846FEF7AAFE2815CDE9BF
:101EC0000004694628460294FEF7A2FE002211464D
:101ED0002520FFF707F82520FEF7F6FF05B030BDF7
:101EE00000380140001002400008014090F83E30E8
:101EF000202B0ED159B152B190F83C30012B08D0B3
:101F0000012380F83C300023036300F005BF01206B
:101F100070470220704700002DE9F0410068234916
:101F2000884241D1224C234F0025207838B93D60AA
:101F30006570A570E57025711FA000F02DFF207859
:101F40000126012808D1962038606670A570E570DA
:101F500025711BA000F020FF2078022809D16FF026
:101F6000950038606570A670E570257116A000F0C8
:101F700013FF2078032806D16570A570E6702571DF
:101F800013A000F009FF2078042806D16570A57021
:101F9000E570267110A000F0FFFEBDE8F0410122BF
:101FA00003490F48FFF7A2BFBDE8F08100380140A8
:101FB0003C00002090000020CDA3D6B90000000016
:101FC000C7B0BDF800000000BAF3CDCB00000000A0
:101FD000D7F3D7AA00000000D3D2D7AA0000000090
:101FE000A80100207047FEE770B50F48016821F096
:101FF00070410160016841F0405101600B4C0025C7
:10200000C4F8BC51C4F8B851022004F5DC7401F0E6
:1020100027FD01202060022001F022FD2560BDE89F
:102020007040022001F01CBD040C014000802142E0
:1020300030B585B0002000900190029003900E48CA
:10204000816941F00801816180690C4D00F0080050
:102050004FF440440490012221462846FEF7D0FE6A
:1020600001210320CDE90210CDE90041694628464F
:10207000FEF7CEFD05B030BD00100240000C01405F
:1020800070B50F48016821F070410160016841F0AE
:10209000405101600B4C0125C4F8BC510026C4F826
:1020A000B861022004F5DC7401F0DAFC256002203E
:1020B00001F0D6FC2660BDE87040022001F0D0BCE3
:1020C000040C0140008021422DE9F04780461B4866
:1020D000016821F070410160016841F00041016038
:1020E0000026174D4FF00109374600BFC5F8B871FB
:1020F000022001F0B5FCC5F8B8916006040ED5F8D1
:102100003C01012801D1641CE4B2012001F0A8FCCB
:10211000C5F8B871761CF6B2082EE7D3B8F1010FF6
:1021200003D0B8F1000F03D004E0FFF7A9FF01E0EE
:10213000FFF75AFF2046BDE8F0870000040C01407D
:102140000080214270B50D48016821F070410160A6
:10215000016841F040510160094C0120C4F8BC0104
:10216000C4F8B801022004F5DC7401F079FC002504
:102170006560022001F074FC256070BD040C014014
:102180000080214270B50F48016821F07041016064
:10219000016841F0405101600B4C0020C4F8BC01C3
:1021A000C4F8B801022004F5DC7401F059FC0125E3
:1021B0002560022001F054FC6560BDE870400220FB
:1021C00001F04EBC040C0140008021422DE9F04199
:1021D00016480025016821F070410160016841F056
:1021E00000410160124C0126C4F8BC612F46C4F8BE
:1021F000B851304604F5DC7401F032FC2660012051
:10220000A4F5DC7401F02CFC08E06D1CEDB2FA2D95
:1022100004D9FFF7B7FF0120BDE8F081D4F83C01F5
:102220000128F2D0C4F8B8710020F5E7040C014091
:10223000008021422DE9F04106461748016821F04F
:1022400070410160016841F040510160134C002071
:10225000C4F8B801054680460127300602D5C4F807
:10226000BC7101E0C4F8BC81022001F0F9FBC4F8A4
:10227000B871022001F0F4FBC4F8B881022001F02B
:10228000EFFBC4F8BC7170066D1C060EEDB2082D94
:10229000E3D3BDE8F0810000040C0140008021423E
:1022A0007CB514460D4606466B4606223B21682047
:1022B00000F080F800280BD1BDF8001049BA318039
:1022C000BDF8021049BA2980BDF8041049BA21802E
:1022D0007CBD7CB514460D4606466B46062243215E
:1022E000682000F067F800280BD1BDF8001049BA4B
:1022F0003180BDF8021049BA2980BDF8041049BAEE
:1023000021807CBD10B5FFF793FE80216B2000F08B
:10231000C0F8642001F096FB00216B2000F0B9F8B2
:10232000032000F082F8002000F07AF8C82000F0C6
:1023300099F80021382000F0ACF800216A2000F064
:10234000A8F80021232000F0A4F88021372000F015
:10235000A0F8752000F011F8682801D0012010BD08
:1023600001216B2000F095F800216C2000F091F81D
:10237000C82000F077F8002010BD10B50446FFF724
:10238000E1FED020FFF756FFFFF720FF2046FFF7C2
:1023900051FFFFF71BFFFFF7D5FED120FFF74AFFE4
:1023A000FFF714FF0120FFF78FFE0446FFF7EAFE58
:1023B000204610BD2DE9F0411D4614460F46064645
:1023C000FFF7C0FE7006000EFFF734FFFFF7FEFEBA
:1023D00020B1FFF7D7FE0120BDE8F0813846FFF7B6
:1023E00029FFFFF7F3FEFFF7ADFE012000EB4600EB
:1023F000C0B2FFF71FFFFFF7E9FE09E0012C0DD087
:102400005FF00000FFF760FE641E05F8010BE4B208
:10241000002CF3D1FFF7B6FE0020DDE70120F1E745
:10242000C006010E1C2000F034B8C006010E1B20AF
:1024300000F02FB8BC2801D3012110E0622801D39D
:1024400002210CE02A2801D3032108E0142801D33B
:10245000042104E00A2801D3052100E006211A2006
:1024600000F017B810B504464FF47A70844201D9D1
:10247000044602E0042C00D20424B0FBF4F0401E19
:10248000C1B2192000F005F86008BDE81040FFF760
:10249000D1BF70B50C460546FFF754FED020FFF7BC
:1024A000C9FEFFF793FE50B92846FFF7C3FEFFF7BA
:1024B0008DFE2046FFF7BEFEFFF788FE18B1FFF73E
:1024C00061FE012070BDFFF75DFE002070BD2DE9AB
:1024D000F0411E4615460F460446FFF733FE6006E0
:1024E000000EFFF7A7FEFFF771FE60B93846FFF751
:1024F000A1FEFFF76BFE00240CE0305DFFF79AFEB3
:10250000FFF764FE20B1FFF73DFE0120BDE8F0813A
:10251000641CE4B2AC42F0D3FFF734FE0020F5E7D0
:102520002DE9F04186B000243048009401940294D3
:102530000394816941F010018161816901F010010A
:102540000491816941F020018161816901F02001DC
:102550000491816941F004018161816901F0040104
:102560000491816941F0080181618069204F00F088
:1025700008004FF400550490002229463846FEF723
:102580003FFCDFF87080012214214046FEF738FC42
:10259000002241F228014046FEF732FC0095022657
:1025A00001250396CDE9015469463846FEF730FB14
:1025B00041F23C00CDE90005CDE9024669464046BE
:1025C000FEF726FB202000900B48CDE90105694667
:1025D0000A48FEF71DFB002201211720FEF782FCAE
:1025E0001720FEF771FC06B0BDE8F0810010024034
:1025F000001001400008014000002110000C0140C3
:1026000010B596B000240F94109411941294139462
:102610001C2168461494FDF7CFFD202107A8FDF783
:10262000CBFD2C482A49C0E900144FF4E151C0E920
:10263000024180210461C0E90541FEF781FF08B134
:10264000FEF750FA4FF480500F900FA92148FEF783
:10265000B9FF08B1FEF746FA1E48FFF74DFA08B178
:10266000FEF740FA139413A91A481494FEF734FFA6
:1026700008B1FEF737FA6020CDE900040294039414
:10268000049405940022694612480694FFF7D1F994
:1026900008B1FEF727FA0C2269460E48FFF7C9F980
:1026A00008B1FEF71FFA0794089409944FF40050FC
:1026B0000A94CDE90B4007A906480E94FEF7E2FE06
:1026C00008B1FEF70FFA0348FFF78CF916B010BDFA
:1026D000002C0140D000002010B58CB024216846A9
:1026E000FDF76AFD0024164809944FF080410A94D2
:1026F000C0E900144FF6FF71C0E902418021046176
:1027000081610320CDE900040120CDE902040A2102
:102710000491CDE90540CDE9074169460848FEF737
:10272000BCFF08B1FEF7DEF9099409A904480A9430
:10273000FEF7D2FE002801D0FEF7D4F90CB010BD90
:102740001801002010B58CB024216846FDF734FD37
:1027500000241748099415490A94C0E900144FF65B
:10276000FF71C0E902418021046181610320CDE94C
:1027700000040120CDE902040A210491CDE90540BD
:10278000CDE9074169460A48FEF787FF08B1FEF721
:10279000A9F9099409A906480A94FEF79DFE0028A4
:1027A00001D0FEF79FF90CB010BD000000080040FA
:1027B000600100200E4810B50C4901604FF4E13172
:1027C0004160002181600C22C160C0E90412816176
:1027D000C161FFF719FB08B1FEF784F9BDE81040AD
:1027E000012204490248FFF781BB00000038014084
:1027F000A80100203C000020FEE7FEE77047000033
:102800000021022805D0032809D0042809D000207F
:1028100070474FF08042506A516200B27047034ADD
:1028200000E0034A1068116000B2704724040040C1
:10283000240800407047000030B50023114A0124ED
:10284000002804DAC2F88C31C2F8884103E0C2F8EB
:102850008C41C2F8883103F025F80B4D286000291F
:1028600004DAC2F89441C2F8903103E0C2F894311E
:10287000C2F89041084603F015F803490C3108608E
:1028800030BD000000002142342C0140FEF7C4BAE4
:1028900030B58FB028216846FDF78EFC14210AA8B8
:1028A000FDF78AFC01210804CDE900100024029400
:1028B00002250491CDE907504FF4E01009906846D5
:1028C000FEF72EFC08B172B6FEE70F20CDE90A052F
:1028D0004FF48060CDE90C4002210AA80E94FEF767
:1028E00033FB002801D072B6FEE70FB030BD704751
:1028F0000148FEF7C3BF0000180100200148FEF7A1
:10290000BDBF000060010020F0B50268164B174CF7
:10291000174D4FF08047984205D0B84203D0A042EF
:1029200001D0A84203D122F070064A68324398428F
:1029300005D0B84203D0A04201D0A84203D122F46E
:102940004074CA6822434C6922F08002224302602C
:102950008A68C2620A688262984201D10969016389
:1029600001214161F0BD0000002C01400004004045
:102970000008004010B501F01F030121046A9940CE
:102980008C430462016A9A401143016210BD10B584
:10299000846842EA032224F47F440A43224382608B
:1029A00010BD826822F070020A4342F00701816084
:1029B0007047000030B5026A22F001020262026A2A
:1029C0004368846924F073050C682C4322F00205E7
:1029D0008A682A430A4DA8420BD122F00805CA682A
:1029E00023F440732A434D6922F004021D438B698E
:1029F0002B434360846149684163026230BD00003B
:102A0000002C014030B5026A22F010020262026A14
:102A1000436884690D6824F4E64444EA05248D681B
:102A200022F0200242EA05120B4DA8420ED1CD68D9
:102A300022F0800242EA05124D6923F4406343EA22
:102A400085038D6922F0400243EA85034360846177
:102A500049688163026230BD002C014030B5026AD2
:102A600022F480720262036A4268C46923F400732C
:102A700024F073050C682C438D6843EA05230C4D44
:102A8000A8420ED1CD6823F4006343EA05234D69C3
:102A900022F4405242EA05128D6923F4806342EA2F
:102AA00005124260C4614968C163036230BD000021
:102AB000002C014030B5026A22F480520262046A9E
:102AC0004268C3690D6823F4E64343EA05238D6831
:102AD00024F4005444EA0534064DA84204D14D695B
:102AE00022F4804242EA85124260C361496801646F
:102AF000046230BD002C014010B5036A046A24F062
:102B000001040462846924F0F00444EA021423F00E
:102B10000A020A438461026210BD10B5036A23F001
:102B2000100303628369046A23F4704343EA0232A8
:102B300024F0A00343EA01118261016210BD00008C
:102B40000549884202D80549884204DD044900202D
:102B50000860044908607047000020C2000020425D
:102B6000100000201400002010B5406A0021C1852B
:102B7000C184FFF742F810BD0168CA6822F4907260
:102B8000CA6001684A6922F001024A61016B0129A9
:102B900004D10168CA6822F01002CA60202180F8BE
:102BA0003E1000210163704708B590F83E102229BD
:102BB00001D0022008BD82684FF480539A4201D1AF
:102BC000016921B1816A9A421BD04AB10AE00268C8
:102BD000816A5268C2F308020A80816A891C08E08F
:102BE000026972B10268526802F07F020A70816A5B
:102BF000491C8162C18D491E0904090CC18503D09D
:102C000019E002685268F1E70168CA6822F0200200
:102C1000CA600168CA6822F48072CA6001684A69A1
:102C200022F001024A61202180F83E10016B012947
:102C300003D0FFF771F9002008BD0021016301688E
:102C4000CA6822F01002CA6001680A68D20602D57A
:102C50000A6849680091818DFEF7CEFFEBE700001E
:102C600070B5044600680169E26821F440511143DF
:102C700001612169A0680843616908432168CA6845
:102C800041F20C639A430243CA6020684169A26919
:102C900021F44071114341611E492068884202D1EC
:102CA000FEF7F8F901E0FEF7E5F900EBC00101EBF2
:102CB0000012606864218000B2FBF0F3B3FBF1F313
:102CC0006FF018067343B2FBF0F5B2FBF0F605EBBC
:102CD0008305322303EB0515B5FBF1F5B6FBF1F6E1
:102CE00005F0F00505EB0615B2FBF0F6B2FBF0F0CF
:102CF000B0FBF1F06FF01802504306EB800003EBDD
:102D00000010B0FBF1F0216800F00F00284488604B
:102D100070BD00000038014081628285C2850021BB
:102D20000164222280F83E2080F83C100168CA68C5
:102D300042F48072CA6001684A6942F001024A6145
:102D40000068C16841F02001C160002070470000A8
:102D50000148FEF753BF0000A8010020FEE7000075
:102D60000A4A0B49136848428B4201DA116002E0BB
:102D7000834200DD1060074A13688B4201DA11605C
:102D800070478342FCDD1060704700001000002097
:102D9000A8E4FFFF140000200FB4054B10B503A9F1
:102DA000044A029800F0AAF810BC5DF814FB000079
:102DB000E9430008C8000020490050EAC12018BFBC
:102DC00004204A0D18BF40F0010040F2FF72B2EB40
:102DD000515F08BF40F00200012808BF052070477E
:102DE0000907090E002804DB00F1E02080F8001438
:102DF000704700F00F0000F1E02080F8141D7047CC
:102E00002DE9F0414F1E00EBC7010446D1E9000156
:102E100015461E4637F006020DD02A463346FDF70A
:102E20005EFB7F1E04EBC703D3E90023FDF7B0FA76
:102E300037F00602F1D1022F25D0042F13D0062F30
:102E400018BFBDE8F0812A463346FDF748FBD4E9B8
:102E50000A23FDF79DFA2A463346FDF740FBD4E9E5
:102E60000823FDF795FA2A463346FDF738FBD4E9E7
:102E70000623FDF78DFA2A463346FDF730FBD4E9E9
:102E80000423FDF785FA2A463346FDF728FBD4E9EB
:102E90000223FDF77DFA2A463346FDF720FBD4E9ED
:102EA0000023BDE8F041FDF773BA0122FDF7F8BB3E
:102EB000FDF76EBA0022134610461146FDF781BB9E
:102EC000024A00201107FDF7EBBB000001FDFFFFE8
:102ED00002E008C8121F08C1002AFAD170477047E3
:102EE000002001E001C1121F002AFBD17047000041
:102EF0000149086070470000CC0000202DE9FF4F19
:102F00008DB00F460546002606E025280BD0DDE9EA
:102F10000F1290476D1C761C28780028F5D111B04F
:102F20003046BDE8F08F0024A246A1460122E949BF
:102F300000E0044315F8013F203B02FA03F0084289
:102F4000F7D128782A2810D06FF02F022878A0F126
:102F50003001092914D80AEB8A0102EB410144F03F
:102F6000020400EB010A6D1CF0E701CF5FEA000AE2
:102F700003D544F40054CAF1000A44F002046D1C65
:102F800028782E2817D115F8010F44F004042A28B8
:102F90000ED06FF02F022878A0F1300109290AD84D
:102FA00009EB890102EB410100EB01096D1CF2E71D
:102FB00057F8049B6D1C28786C280FD006DC4C2831
:102FC00017D068280DD06A2814D104E0742810D0D6
:102FD0007A280FD10DE044F400140AE044F4801480
:102FE00001E044F440146978814202D104F5801470
:102FF0006D1C6D1C28786E281ED00CDC632830D028
:1030000004DC00288BD0582811D19FE0642867D0B9
:1030100069280CD164E073282DD004DC6F2872D0AD
:10302000702804D194E075286ED078286DD0DDE941
:103030000F129047761C4BE1C4F30250022806D0D1
:10304000032809D0042801CF09D0066040E101CF50
:10305000F117C0E900613BE101CF068038E106705D
:1030600036E117F8040B8DF8000000208DF8010000
:10307000EB46012003E057F804BB4FF0FF30610737
:103080004FF0000102D40DE008F1010188464945E6
:103090000FDA8045F8DB1BF808100029F4D108E0AE
:1030A00008F1010188468142FADB1BF8081000296B
:1030B000F6D1DDE90F23AAEB08008146214600F096
:1030C00031F9304400EB080604E0DDE90F121BF88B
:1030D000010B9047B8F10108F7D221464846F2E0CB
:1030E0000A21C4F302524FF0000B0891022A04D0C7
:1030F00001CFC117032A09D00AE0FF1D27F00707F7
:10310000F7E8020108E02CE01EE01FE000B2C11762
:10311000042A01D140B2C117021E71F1000206DA81
:103120000023D0EB030063EB01012D2202E0220516
:1031300004D52B228DF82420012203E0E20701D0E0
:103140002022F7E7904653E00A210BE0102109E026
:1031500010214FF0000B44F004044FF008090891CF
:1031600003E008214FF0000B0891C4F30252022A39
:1031700004D001CF0021032A06D006E0FF1D27F06E
:103180000707F7E8020103E080B2042A00D1C0B2C9
:103190004FF0000822072BD52A78702A07D0DDF8D7
:1031A00020C08CF0100C5CEA0B0C05D00EE0402225
:1031B0008DF82420012208E050EA010306D03023D4
:1031C0008DF824308DF8252002229046089B83F04C
:1031D000080353EA0B030BD150EA010201D1620745
:1031E00006D530228DF824204FF00108A9F10109FD
:1031F0002A78582A04D038A20B9208AA0A920BE027
:103200003AA2F9E75B46089AFDF706FB0B9B9B5C2D
:103210000A9A521E0A92137050EA0102F2D10A98D9
:10322000ADEB000000F1200B600702D524F48034E0
:1032300001E04FF00109D94502DDA9EB0B0000E0E8
:10324000002000EB0B0141440890AAEB010AE003C7
:1032500006D4DDE90F232146504600F063F806440A
:103260004FF0000908E009A911F80900DDE90F1283
:10327000904709F10109761CC145F4DBE0030CD548
:10328000DDE90F232146504600F04CF8064404E0E7
:10329000DDE90F1230209047761C0899481E0890EF
:1032A0000029F5DC08E00A980A990078491C0A917F
:1032B000DDE90F129047761CBBF10001ABF1010B69
:1032C000F1DC21465046DDE90F2300F019F80644F1
:1032D0006D1C21E609280100303132333435363790
:1032E0003839616263646566000000003031323352
:1032F00034353637383941424344454600000000F2
:103300002DE9F041044600251E461746880404D4E2
:1033100005E039462020B0476D1C641EF9D52846CB
:10332000BDE8F0812DE9F041044600251E46904697
:10333000C80301D5302700E02027880404D505E024
:1033400041463846B0476D1C641EF9D52846BDE895
:10335000F08100002DE9FE4F07460E460025684625
:1033600001F04EF800246FF00F0AE8464FF0010913
:1033700057F8240056F82410401A00D54042FDF7B3
:10338000A6F95146FCF7F8FF58F8241011F0FF4F4A
:103390000BD0FCF7B3FF4FF07E51FCF777FF0A49E3
:1033A00020F00040884205DC07E00849084408494D
:1033B000884202D309FA04F00543641C032CD7DBCE
:1033C0002846BDE8FE8F0000295C0F3E666666C198
:1033D0009A99D9002DE9F04D8D4F21F0004A86B021
:1033E00005460C46BA452ADBAAEB070028430AD05B
:1033F0008848824501DC1AD1CDB106B02846BDE827
:10340000F04DFFF752BD844A844B2846FDF767F81C
:1034100007460E46824A834B28462146FDF75FF851
:1034200006B03A463346BDE8F04DFCF7B1BF012087
:10343000FFF75EFD06B0BDE8F04DFFF73BBD7A48F3
:10344000824542DABAF1795F0BDA2846FFF7B4FC1D
:10345000042808BFFFF734FD284606B02146BDE822
:10346000F08D2A460B461046FDF739F88346024692
:103470006E480E460B4606217844FFF7C1FC5A46BB
:103480003346FDF72CF8804669488A465A4633464B
:1034900004217844FFF7B4FC5A463346FDF71FF881
:1034A00000223B46FCF774FF02460B46404651465D
:1034B000FDF787F82A462346FDF711F806B02A469D
:1034C0002346BDE8F04DFCF763BF284624F00041D9
:1034D00000223D463B46FCF7FFFF4FF0FF32FDF771
:1034E000DFF80646024653480F460B46062178444D
:1034F000FFF786FC32463B46FCF7F1FFCDE90001C1
:103500004D4832463B4604217844FFF779FC324669
:103510003B46FCF7E4FF00222B46FCF739FF8346CD
:1035200002913046394602F02DFA804643480D4656
:10353000504517DCDDE900015A46029BFDF741F8D2
:1035400042462B46FCF7CBFF42462B46FCF720FFBA
:103550000122FDF7A5F8304A304BFCF7BAFF304A9C
:10356000304B4CE04FF0000A52460B464046FCF709
:103570000FFFCDE9031052462B4610461946FCF7C3
:10358000AEFF32463B46FCF7A7FFDDE90332FDF70D
:1035900018F806460F46DDE900015A46029BFDF782
:1035A00010F883460091012230463946FDF778F83D
:1035B000194A1A4BFCF790FF06460F460122404677
:1035C0002946FDF76DF85A46009BFCF788FF324606
:1035D0003B46FCF77EFF06460F4601225046294631
:1035E000FDF75EF80E4DDFF858802A464346FCF79B
:1035F00073FF32463B46FCF76FFF2A464346FCF713
:103600006BFF002CD8BF81F0004106B0BDE8F08D03
:103610000000F03F0000F07F075C143326A6913CC9
:10362000182D4454FB21F93F0000E03FB433000063
:10363000CA3300003E330000543300003333EF3F01
:10364000FB21E93F2DE9F84F04460D4621F00040EB
:1036500000917349814211DC7249884201DC06D134
:103660002CB120462946BDE8F84FFFF71EBC6E4836
:10367000002DCCBF6D496E49BDE8F88F6D49814280
:1036800011DD6D498142D8BF4FF0FF366DDD204618
:103690002946FFF791FB042808BFFFF711FC2046DD
:1036A0002946BDE8F88F6549654F25F00045814200
:1036B00033DD6449814219DD002632464FF08043F4
:1036C00020462946FCF764FE80468A4601222046B1
:1036D0002946FCF7E5FF00223B46FCF7FAFE42468E
:1036E0005346FCF76EFF04460D463EE001260022DD
:1036F000BA463B4620462946FCF74AFE80460F461E
:103700000022534620462946FCF7E3FE42463B464C
:10371000FCF757FF04460D4627E04B4981421BDD6D
:10372000DFF828A102260022534620462946FCF74E
:10373000D6FE00223B46FCF72BFE80460F460022B9
:10374000534620462946FCF7C4FE42463B46FCF75A
:1037500038FF04460D4608E0032622462B4600208B
:103760003B49FCF72EFF04460D4622462B461046E9
:103770001946FCF7B4FE8B46824602460B46FCF720
:10378000AEFE07460246334888460B46062178447B
:10379000FFF736FB52465B46FCF7A1FE82462E48F9
:1037A0008B463A46434605217844FFF729FB3A46C3
:1037B0004346FCF794FE02460B46002E50465946FF
:1037C0000CDAFCF7E5FD22462B46FCF788FE01B03B
:1037D00022462B46BDE8F04FFCF77EBEFCF7D8FD35
:1037E00022462B46FCF77BFE1C4A7A4402EBC603BA
:1037F000D3E90023FCF76DFE22462B46FCF769FE59
:10380000174A7A4402EBC603D3E90023FCF764FEAF
:10381000009A002AB8BF81F00041BDE8F88F00008F
:10382000000010440000F07F182D4454FB21F93FA4
:10383000FB21F9BF0000DC3F0000203E0000F33F09
:103840000000F03F0000E63F008003400000F83F2A
:103850000000F0BF5631000014310000B23000000B
:103860007A3000002DE9F04D9446CCF1000423F0AD
:1038700000464CEA0404594F46EAD4749A468846F6
:1038800021F00042BC4206D8454240EA050442EA23
:10389000D474BC4204D9BDE8F04D6246FFF708BBC2
:1038A000AAF14055A5F17F6555EA0C040BD002241E
:1038B00004EAAA744A4DDFF82CE144EAD87452EACB
:1038C000000B04D00CE0BDE8F04DFFF7BBBE002CB0
:1038D00014BF012CBDE8F08D022C30D0032C32D067
:1038E00056EA0C0B0AD0BE4220D1BA4209D126F0CA
:1038F000804622F080423346114617E000291ADB49
:1039000025E0DFF8E4B0FB44002C04BFDBE9000154
:10391000BDE8F08D012C02BFDBE9000181F0004120
:10392000BDE8F08D022C0AD0032C0CD0BA4212D183
:10393000B8F1000F0BDA2A482C49BDE8F08D284673
:103940002B49BDE8F08D28467146BDE8F08D24482E
:103950002849BDE8F08D921B12153C2AC4BF204FA8
:10396000244E10DCBAF1000FBEBF12F13C0F00274D
:103970003E4608DB6246FCF724FE21F00041FFF7DB
:1039800061FE07460E4694B1012C08BF86F0004642
:103990000DD0194A194B022C3846314615D0FCF788
:1039A00098FD2A46BDE8F04D114BFCF792BD002270
:1039B000134638463146FDF715F804BF0220FFF7DD
:1039C00097FA38463146BDE8F08DFCF782FD2A466D
:1039D000BDE8F04D064BFCF77FBD00000000F07F16
:1039E000182D4454FB2109C00E300000FB21F9BF03
:1039F000FB210940FB21F93F075C143326A6A13CBB
:103A000070B51446FCF742FC084E05462146B068E6
:103A1000FCF742FC044629467068FCF73DFC214651
:103A2000FCF7E2FBBDE87040FCF770BE90000020A0
:103A300010B504460420FDF703FD0148046010BDE5
:103A40005400002070B5054600244FF47A7603E058
:103A5000304600F005F8641CAC42F9D370BD00009C
:103A600070B54FF0E024002265690949A36909682F
:103A70004843A1699942FCD002D2A3EB010302E0C2
:103A8000A5EB010633441A440B468242F1D370BDC4
:103A90005400002008B560B120208DF800002820D7
:103AA0008DF8010030208DF8020038208DF80300D9
:103AB00004E0A32204216846FCF777FB6A46042150
:103AC00040F69E2001F0C4FE01F082FB08BD00001C
:103AD0003EB5044602208DF80000CA208DF8010092
:103AE000E3208DF8020009208DF803006A460421C6
:103AF000682001F0ADFEA3208DF80000610609D515
:103B0000C0218DF80110C8218DF80210C2218DF856
:103B1000031005E08DF801008DF802008DF8030018
:103B200014F4C07F09D0C4218DF80410CC218DF885
:103B30000510C6218DF8061005E08DF804008DF8FB
:103B400005008DF806008DF808008DF807008DF847
:103B500009006A460A2140F6A72001F079FEA00775
:103B60004FF0D80503D020208DF8000001E08DF83B
:103B700000506A46012140F6B62001F069FEA00619
:103B800001D5012000E0002000F08EF814F4C07F81
:103B90001ED0E0050AD5B2208DF800008B208DF8EC
:103BA0000100B6208DF802009B2009E0B0208DF8BE
:103BB000000080208DF80100B4208DF802009020D4
:103BC0008DF803006A46042140F6A22001F040FE71
:103BD000E1074FF40B6022D0F8218DF800106A46FF
:103BE000012101F035FEFA21072000F049FB0720F2
:103BF00000F014FB012000F031FB642000F0D4FB46
:103C00004FF4FA7000F0E0FBC821254800F0CEFA2E
:103C1000282000F0E3FA0A2000F0F0FA05E08DF821
:103C200000506A46012101F013FEA00703D5D920F8
:103C30008DF8000001E08DF800506A46012140F245
:103C40003D7001F005FE600701D5012000E0002075
:103C500000F048F8E00601D5012000E00020FFF761
:103C600019FF104D44F00800688101F0B1FA0020FE
:103C7000A873600601D50620A87314F4C07F02D093
:103C8000A87B801DA87314F0140F02D0A87B1030FD
:103C9000A873A00702D0A87B001DA87300203EBD1A
:103CA00009E3CA02EC0100200EB54FF4976310B18E
:103CB00006A107C901E008A207CA8DE807006A4605
:103CC0000921184601F0C4FD0EBD0000B8AAB38D4D
:103CD000B4980D355D000000B8AAAAAAB088C3C583
:103CE000C700000008B560B1C0208DF80000C220F8
:103CF0008DF80100C4208DF80200C6208DF8030065
:103D000004E08B2204216846FCF74FFA6A4604213E
:103D100040F6982001F09CFD01F05AFA08BD000021
:103D2000C8234FF48062024940F6F63001F032B900
:103D3000385C00082DE9FF4F89B01746DDE91652BF
:103D40000024544E884681462C80A246B07B6946AA
:103D500001F0CCF94FF0FF3B18B158460DB0BDE86B
:103D6000F08F708910F0140F4CD0BDF800109DF842
:103D7000022049BA090441EA02239DF803100B43CB
:103D80003B60BDF804109DF8062049BA090441EAD9
:103D900002229DF807101B140A437A60BDF8081030
:103DA0009DF80A4049BA090441EA04219DF80B40F4
:103DB00012142143B960BDF80C409DF80EC064BADE
:103DC000240444EA0C2C9DF80F4009144CEA040C1E
:103DD000C7F80CC04FEA2C475B43494302FB023251
:103DE00007FB071111441024A1F17061B1F1007FAC
:103DF00004D901F0EDF9A5F800A0AEE7298841F457
:103E0000807129804206694611D50A19A41D1388BC
:103E10005BBAA8F8003053885BBAA8F802309288E1
:103E200052BAA8F804202A8842F008022A8010F426
:103E3000C07F11D00A19A41D13885BBAA9F80030FD
:103E400053885BBAA9F80230928852BAA9F80420C4
:103E50002A8842F070022A80800716D00C44E0784D
:103E600000F0C00500F03F016078C00706D0C80828
:103E700001F007013268491C02B1904760780007E1
:103E800003D5716809B1A80988470C9800F0D2FDE4
:103E9000002063E7EC0100202DE9FF41044603A860
:103EA00000F02EFFBDF80C00410CC3032F48008921
:103EB00000F0030254F82250420700D56D42C0F3CF
:103EC000C102860654F8222000D55242C0F3811662
:103ED000C00554F8264000D56442A5FB0367E817E7
:103EE00000FB037005FB0100850045EA9670A2FB0C
:103EF0000367D51705FB037502FB0152950045EAE0
:103F00009672A4FB0367E51705FB037304FB0131FD
:103F10008B0043EA9671030E8DF80030030C8DF888
:103F20000130030A8DF802308DF80300100E8DF871
:103F30000400100C8DF80500100A8DF80600080E1C
:103F40008DF80800080C8DF80900080A8DF80A00A1
:103F50008DF807208DF80B106A460C214FF4257060
:103F600001F076FC04B0BDE8F0810000EC01002017
:103F700030B5044613A285B007CA8DE807004FF09C
:103F8000FF35C82C16D8C820B0FBF4F1491E080A2A
:103F90008DF80C008DF80D1003AA022140F21620B6
:103FA00001F056FC30B96A460C2140F6C12001F000
:103FB0004FFC10B1284605B030BD05488481002073
:103FC000F9E70000FEF2ABC4AAF1DFDFBBAFDFDF31
:103FD000EC010020F8B53049098901F0030250F8DE
:103FE00022404A0700D56442C1F3C1028B0650F853
:103FF000222000D55242C1F3811350F82330C80566
:1040000000D55B42254984FB0140850045EA947058
:1040100082FB0142A40F44EA820483FB0121950F35
:1040200045EA8105010E8DF80010010C8DF8011094
:10403000010A8DF802108DF803006A4604214FF43E
:10404000747001F005FC4FF0FF3688B9200E8DF832
:104050000000200C8DF80100200A8DF802008DF878
:1040600003406A4604214FF4757001F0F1FB08B17A
:104070003046F8BD280E8DF80000280C8DF80100A0
:10408000280A8DF802008DF803506A4604214FF487
:10409000767001F0DDFBF8BDEC01002009E3CA02F7
:1040A0002DE9FF4104463CA004F0030300680290A0
:1040B0003AA0006803903AA006683AA0056802A8F2
:1040C000C15C8DF80010C4F3C101425C8DF8012081
:1040D000C4F38112805C8DF8020003A8C35C8DF8E4
:1040E0000430415C8DF80510805C8DF806006A464E
:1040F000032140F2264001F0ABFB4FF0FF37E0BB5D
:1041000001AA032140F22A4001F0A2FBA8BBCDE99D
:10411000006560070BD59DF8000040F001008DF8A8
:1041200000009DF8040040F001008DF80400A00696
:104130000BD59DF8010040F001008DF801009DF8BD
:10414000050040F001008DF80500E0050BD59DF855
:10415000020040F001008DF802009DF8060040F0DA
:1041600001008DF806006A4603214FF4886001F0D3
:104170006FFB10B901AA032100E004E040F23140D6
:1041800001F066FB18B1384604B0BDE8F08106487E
:1041900004810020F8E700004CCD6C000CC92C0015
:1041A0003656760026466600EC0100204FF47A72FF
:1041B00090FBF2F008B54843010E8DF80010010C99
:1041C0008DF80110010A8DF802108DF803006A467F
:1041D00004214FF4AE7001F03BFB08BD0521B0FB9C
:1041E000F1F008B5010A8DF800108DF801006A465B
:1041F00002214FF4AD7001F02BFB08BD0521B0FB8F
:10420000F1F008B5010A8DF800108DF801006A463A
:1042100002214FF4AC7001F01BFB08BD08B5002172
:104220008DF80010C10702D030218DF800108107F1
:1042300005D59DF8001041F00C018DF800104007E5
:1042400005D59DF8000040F003008DF800006A4697
:1042500001214FF4A47001F0FBFA08BD08B560B16C
:10426000042800D90420401E8DF800006A46012170
:1042700040F24F1001F0ECFA08BD0120F3E7000016
:104280002DE9FC41054640074FF0FF367CD0B1F5E3
:10429000C86F79D80846FCF723FA3E49FCF72EF898
:1042A000074601A800F00EFD9DF80400022806D084
:1042B00004280DD008282ED0102865D134E00E2116
:1042C0003846FCF759F8FCF73AFA84B2324907E06D
:1042D0000D213846FCF750F8FCF731FA2F4984B22B
:1042E0003846FBF7D9FFFCF72AFA210A8DF80010AF
:1042F00080B28DF80140010A8DF802108DF803009C
:10430000E8076C4620D0224602214FF4EA7001F003
:104310009FFAC8BB11E00C213846FCF72DF8FCF7DA
:104320000EFA84B21E49DBE70B213846FCF724F86D
:10433000FCF705FA84B21B49D2E7A21C02214FF414
:10434000927001F085FAF8B9A8070DD56A460221E6
:104350004FF4EC7001F07CFAB0B9A21C02214FF4CA
:10436000947001F075FA78B9680710D56A46022191
:104370004FF4EE7001F06CFA30B9A21C02214FF438
:10438000967001F065FA10B13046BDE8FC8100205E
:10439000FBE7000000004843000040460000C04525
:1043A000000040450000C0440521B0FBF1F008B515
:1043B000010A8DF800108DF801006A4602214FF4C1
:1043C000EF7001F045FA08BD0521B0FBF1F008B52A
:1043D000010A8DF800108DF801006A4602214FF4A1
:1043E000ED7001F035FA08BD04490A685206FCD5A3
:1043F000024AC1B2121D116070470000003801402E
:104400002DE9FE430646264801AB042240680D21F3
:104410000078FDF7CFFF10B10720BDE8FE839DF8BF
:1044200004101C2000EAD1029DF80710DFF87490F8
:10443000C1F301131A438DF800209DF80520C1F344
:10444000810300EAD2021A438DF801209DF806206C
:1044500001F0030100EAD20008430024124F8DF856
:104460000200A0466D46285D10B146F824900AE08F
:1044700046F824800DE000BF56F824003946FBF7CB
:104480000BFF46F82400285D401E10F0FF00285561
:10449000F2D1641CE4B2032CE5D30020BDE7000098
:1044A000580000207B14AE3E1D5A843F2DE9FE4F7C
:1044B00005460120C14E8DF800004FF000088DF830
:1044C000018030680C461746817C70686B4602227A
:1044D0000078FDF7FCFF4FF0FF3A00287AD1C820A2
:1044E000FFF7B0FA8DF8008030686B460122C17B7F
:1044F00070680078FDF7EBFF0028EFD130686B465D
:104500000122417970680078FDF7E1FF0028E5D1CC
:1045100030686B460122817C70680078FDF7D7FF18
:104520000028DBD130686B460122C17D70680078BD
:10453000FDF7CDFF0028D1D130686B46012201790B
:1045400070680078FDF7C3FF0028C7D14FF00C0951
:104550008DF8009030686B46012201797068007810
:10456000FDF7B5FF002835D10F20FFF76BFAB06AD1
:104570006B460122407A8DF80000306881787068BF
:104580000078FDF7A4FF002824D1B06A6B46012211
:10459000007A8DF800003068417870680078FDF787
:1045A00096FF002873D1B06A807A0FB140F0E00026
:1045B0008DF8000030686B460122817970680078C0
:1045C000FDF785FF002862D12FB1B06AC07A40F0B4
:1045D000E00001E04AE018208DF8000030686B46EA
:1045E0000122C17970680078FDF771FFF0BB17B147
:1045F000C820FFF727FA40208DF8000030686B468E
:104600000122017970680078FDF761FF70BB7820A6
:104610008DF8000030686B4601224179706800789F
:10462000FDF755FF10BB3220FFF70CFA8DF8008024
:10463000306847466B464179706801220078FDF783
:1046400046FF98B931687068B046897A00786B4641
:104650000222FDF7AFFE48B9BDF80000AF6040BAD6
:10466000B0FBF9F06F60C6B22F6000E00FE0A7600A
:1046700067602760002739E0D8F80010D8F80400F8
:104680006B46C97A00780C22FDF794FE10B15046B3
:10469000BDE8FE8FBDF80000236840BA00B2BDF847
:1046A0000210BDF804201844206049BA606809B2BD
:1046B0000844606052BAA06812B21044A060BDF80D
:1046C00006002B6840BA01B2BDF80800BDF80A2008
:1046D0001944296040BA696800B20844686052BA57
:1046E000A86812B210447F1CFFB2A860B742C3D3BF
:1046F00028688322C117090441EA104100040023FD
:10470000FBF712FD32460023FBF70EFD28606868B8
:104710008322C117090441EA104100040023FBF77A
:1047200003FD32460023FBF7FFFC6860A868832284
:10473000C117090441EA104100040023FBF7F4FC0F
:1047400032460023FBF7F0FCA86020684FF40065B8
:10475000C117090441EA104100042A460023FBF76F
:10476000E3FC32460023FBF7DFFC206060682A464A
:10477000C117090441EA104100040023FBF7D4FCEF
:1047800032460023FBF7D0FC6060A0682A46C117C0
:10479000090441EA104100040023FBF7C5FC32463E
:1047A0000023FBF7C1FCA060002802DDA0F58030EB
:1047B00001E000F58030A060002069E7580000208B
:1047C0002DE9F84F81462E488846002540686B4603
:1047D000032200780D21FDF7EDFD10B10720BDE8A3
:1047E000F88F9DF80000002400F01F008DF80000F5
:1047F0009DF801006FF00F0B00F01F008DF8010015
:104800009DF802006E4600F01F008DF802004FF088
:10481000010A00BF59F8241058F82400081A00D5DE
:104820004042FBF754FF5946FBF7A6FD0746305DB3
:10483000C0B1144802E01449FBF72EFD315D491E5A
:1048400011F0FF013155F6D101463846FBF756FD10
:104850004FF07E51FBF71AFD0C4920F000408842D2
:1048600005DC07E00A483844B0F1D97F02D90AFADA
:1048700004F00543641C032CCCDB2846AFE70000A2
:10488000580000200000C84154E3853F295C0F3EDA
:104890000000E0BE00B5024600F00DF80346D01C53
:1048A00000F009F843EAC003901D00F004F843EA61
:1048B000801080B200BD90F90010002902DD4FF099
:1048C0000000704702DA4FF00400704790F90110C1
:1048D000002902DD4FF00100704702DA4FF00500B9
:1048E000704790F90200002802DD4FF00200704787
:1048F00002DA4FF0060070474FF0070070470000E3
:10490000FCF792FAFDF7C4FFFDF70AFEFDF752FF30
:10491000FDF776FEFDF7E0FEFDF714FF4820FFF7F8
:1049200087F800213D48FDF717F90C213B48FDF7BA
:1049300013F900213A48FCF759FF04213848FCF7E5
:1049400055FF00213748FCF751FF04213548FCF79B
:104950004DFFFDF7D7FC00F067F9334C20780128B4
:10496000FCD1314A2432111F081F00F08FF82E4A63
:104970000C32911E881EFDF7ACFC2B4A921D911E35
:10498000881EFDF78DFC0220FDF73AFF4042A06231
:104990000420FDF735FFE062B4F90A00FBF797FE4B
:1049A0000246D4E90610FFF72BF82063D4E90A0188
:1049B00001F0A0F860631D480078012824D01C484D
:1049C0000078012820D0B4F90C00FBF78EFE4FF0E0
:1049D000FF32FBF765FEFBF7C6FEA063D4E90C01CE
:1049E000401AA16B421A0844C4E90420FEF7B8F942
:1049F000B4F90610E069FEF7A3F8D4E90401FDF765
:104A00001BFF00202070A9E7B4F90C00FBF75FFE44
:104A10000246D4E90A0100F0DBFFDEE7D000002007
:104A20001801002060010020000000203F0000204D
:104A300040000020704700002DE9F041124C20F0AA
:104A40000101002594F8240010B10020BDE8F08198
:104A5000A07A4FF0FF3668B10840277C2074884266
:104A600000D0354641B1012000F060FF00F0B0FBFE
:104A700038B127743046E9E7207D00B1012000F00D
:104A800055FF2846E2E70000580000202DE9F74FC7
:104A90008EB00CA902A8CDE900010BAB03AA09A9AD
:104AA00007A8FFF747F918B1012011B0BDE8F08F52
:104AB000BDF80800C0057DD50398FBF708FE6FF030
:104AC0001D042146FBF758FC82460498FBF7FFFDC6
:104AD0002146FBF751FC81460598FBF7F8FD21467E
:104AE000FBF74AFC80460698FBF7F1FD2146FBF7F1
:104AF00043FC054601215046FBF73EFC0646414675
:104B0000FBF7CAFB04464FF040414846FBF7C4FBA5
:104B100007462946FBF7C0FB2146FBF765FBFBF781
:104B200041FEFEF757FC4FF0663B5A463D4BFBF704
:104B3000D6FCFBF74AFE0E99086001214046FBF7C0
:104B40001BFC41460090FBF7A7FB0446384649464C
:104B5000FBF7A2FB2146FBF799FB4FF07E51FBF7D9
:104B600043FBFBF71FFE07460C4630464946FBF762
:104B700093FB064629460098FBF78EFB3146FBF770
:104B800033FBFBF70FFE3A462346FEF76BFE5A4611
:104B9000244BFBF7A4FCFBF718FE0F99086029468D
:104BA0000846FBF779FB074641460846FBF774FBCE
:104BB000064600E034E049460846FBF76DFB044634
:104BC00051460846FBF768FB2146FBF70DFB3146D3
:104BD000FBF75CFB3946FBF759FBFBF7E3FD0646A9
:104BE0000C4629465046FBF757FB054641464846CA
:104BF000FBF752FB2946FBF7F7FA0121FBF7BCFB59
:104C0000FBF7D0FD32462346FEF72CFE5A46054BF5
:104C1000FBF765FCFBF7D9FD10990860002044E71D
:104C2000022042E766A64C4010B5FDF701FA00F0FD
:104C3000EDF808B10A2010BD782000F0ADFD10F0AD
:104C4000FF0F01D0012010BD7820FFF7F5FE10F016
:104C5000FF0F01D0022010BD642000F05DFD10F0B8
:104C6000FF0F01D0032010BDFFF75AF810F0FF0F1F
:104C700001D0042010BD1248FFF70CFEFFF710FA18
:104C800010F0FF0F01D0052010BD40F27310FEF7A9
:104C90001FFF10F0FF0F01D0062010BD6420FFF7AA
:104CA00067F910F0FF0F01D0072010BD00F0FEFDE6
:104CB000012000F057FC10F0FF00F6D0092010BDD5
:104CC000840000200D494A7A42B1012A08D0022A04
:104CD0000FD0032A0FD04FF0FF307047022200E0C0
:104CE00004220270C97C11B11106C90D01700020A7
:104CF00070470822F5E71022F3E700005800002073
:104D00000F494A7A42B1012A09D0022A11D0032A56
:104D100012D04FF0FF3070474FF4804201E041F66F
:104D20009C720280C97C11B1C2F34E010180002047
:104D300070474FF48052F4E74FF40062F1E700004F
:104D4000580000200B49097A39B1012907D00229FE
:104D50000AD003290BD0002103E0FA2101E04FF42F
:104D6000FA710180002070474FF47A71F9E74FF42F
:104D7000FA61F6E7580000200A49097A41B1012991
:104D800008D002290AD003290AD04FF0FF3070471B
:104D9000054900E005490160002070470449FAE731
:104DA0000449F8E758000020000003430000834254
:104DB00033330342333383410C49C97A072913D271
:104DC000DFE801F01204060A0C0E1000BC2100E01E
:104DD00062210180002070472A21FAE71421F8E7B8
:104DE0000A21F6E70521F4E70021F2E75800002048
:104DF000054991F8242012B14FF0FF307047C9895E
:104E00000180002070470000580000202DE9FC417F
:104E10004C4C80208DF8000020686B460122817C7C
:104E200060680078FDF753FB4FF0FF37002832D160
:104E30006420FEF707FE00258DF8005020686B46C1
:104E40000122817C60680078FDF741FB002870D169
:104E500020686B460622817D60680078FDF7AAFA1B
:104E6000002866D19DF805009DF80310C007400F8B
:104E700001F0010140EA41019DF801004FF00106F7
:104E800000F00100014309D0012905D0022915D005
:104E90002DA0FDF781FF4CE0E67410E020686B4622
:104EA0000122C17860680078FDF784FA40BB9DF864
:104EB000000010F00F0020D0042822D0E574FF205D
:104EC00004F80A0F4FF6FF7104F8020C04F8010C05
:104ED0006070A180A0712072A67026766576E5725A
:104EE000A572E56025616561A576E576A5834FF439
:104EF000FA6000F073FB18B907E01D48FDF74CFF9E
:104F000017E01CA0FDF748FFC6E7022000F088FA72
:104F100078B92A2000F0CAFB58B9322000F0FCFB17
:104F200038B90020FFF788FD18B9002000F0ACFA6E
:104F300010B13846BDE8FC81002000F02DFC0020B7
:104F4000F8E7000058000020556E737570706F729E
:104F500074656420736F6674776172652070726F18
:104F600064756374207265762025642E0A00000043
:104F70002069000848616C662073656E7369746906
:104F800076697479207061727420666F756E642E14
:104F90000A0000002DE9FF4FDFF89480064685B037
:104FA00098F8250015460F464FF0FF39B0BBAFB358
:104FB000002420E0301B102800DD102080B2834642
:104FC0003A1901469246204600F042FC30BB6A4640
:104FD0005946204600F0D2F800BB50465A46694672
:104FE000FBF7F5F820B16FF0010009B0BDE8F08FD4
:104FF00004EB0B0084B2B442DCD3280A8DF8100015
:105000008DF81150D8F80000444604AB817ED8F8E2
:10501000040002220078FDF75AFA08B14846E4E796
:10502000012084F825000898E0840020DDE70000D6
:10503000580000202DE9F84305464FF0FF39282895
:1050400044D80727284C00267DB1012000F0FCFA47
:1050500020208DF800004FF00108012D17D0052DFC
:1050600018D88DF8018005201FE0002000F0ECFA30
:105070008DF800608DF8017020686B460222817CFB
:1050800060680078FDF723FA00BB267529E08DF8EB
:105090000160E8E7142D04D802208DF801000A20F1
:1050A00003E003208DF80100142000F0FFFA9DF8C2
:1050B00001006B4607EB80108DF80100206802228A
:1050C000817C60680078FDF702FA10B14846BDE8BF
:1050D000F8830820A072267384F814800020FFF75C
:1050E000ABFC0020F3E70000580000202DE9F84356
:1050F000214C0646174694F8240089464FF0FF38A5
:1051000090B3A07A80B320686B460222817A6068EF
:105110000078FDF74FF938BBBDF8000045BAB5423D
:1051200002D2002038701FE060684188B5EB510F53
:1051300011D9216800786B46497C0122FDF73AF9C4
:1051400090B99DF80000C00605D500F041F86FF059
:105150000100BDE8F8832068F2B24B46C17A60686E
:105160000078FDF727F908B14046F2E7B5FBF6F005
:10517000401E38700020ECE758000020F8B51600FB
:105180000D464FF0FF371FD0104CA17AE1B1010A54
:105190008DF80010C0B28DF8010041196068428995
:1051A000914211D8216800786B46097E0222FDF7F2
:1051B0008EF948B92068EAB23346417D60680078CC
:1051C000FDF7F8F8002800D03846F8BD5800002058
:1051D000F8B5564C4FF0FF36A07A00287DD0002558
:1051E0008DF8005020686B460122C17B6068007812
:1051F000FDF76DF9002870D120686B4601224179D6
:1052000060680078FDF763F9002866D120686B4676
:105210000122017960680078FDF759F900285CD116
:1052200094F82400E0B30C208DF8000020686B4651
:105230000122017960680078FDF749F9002872D1F0
:105240003220FEF7FFFBC0208DF80000A07AC007D7
:1052500002D0E0208DF8000020686B460122017921
:1052600060680078FDF733F900285CD1607C18B1E4
:1052700002208DF8000001E08DF8005020686B4698
:105280000122C17B60680078FDF721F928BB8DF809
:10529000005020686B4601224179606800783EE04A
:1052A000FFE704208DF8000020686B460122017999
:1052B00060680078FDF70BF978B9A07C90B9A07A06
:1052C000C0070FD05FF060008DF8000020686B46CB
:1052D000012201796068007800E024E0FDF7F7F82A
:1052E00008BB01E04020EFE73220FEF7ABFB607C1B
:1052F00018B101208DF8000001E08DF80050206801
:105300006B460122C17B60680078FDF7E0F850B978
:105310002068064B01224179606810330078FDF760
:10532000D6F8002800D03046F8BD00005800002014
:105330002DE9F047394C82468AB094F824000F4694
:1053400020B1002000F00EF9012600E0002607A899
:10535000FFF7F8FC06A8FFF7B5FC09A8FFF72CFD3E
:1053600008A8FFF745FD94F80A9094F810800025EE
:10537000002239465046FFF799F810B16D1C022DF6
:10538000F6DB022D1AD00025012203A96846FFF79B
:105390008DF810B16D1C022DF6DB022D0ED003A985
:1053A0003846FDF7D7FFC7B269465046FFF708FAFF
:1053B00010F0FF0F4FF0000502D002E0002503E0DF
:1053C00001250FB945F00205FF2020726072E072DE
:1053D0004FF6FF71E181A072207401202073BDF8A7
:1053E0001C0000F0FBF89DF8180000F019F8BDF85B
:1053F000240000F05BF9BDF8200000F08DF948466C
:1054000000F0CAF94046FFF717FB16B1012000F083
:10541000A9F80AB02846BDE8F0870000580000202F
:1054200038B5184C4FF0FF35A17A19B3022806D0D1
:10543000042806D008280ED010281BD10DE000202B
:1054400000E008208DF80000607A9DF80010B0EBB5
:10545000D10F04D005E01020F4E71820F2E7002077
:1054600038BD20686B460122C17960680078FDF77D
:105470002EF808B1284638BD9DF80000C0086072BB
:10548000EDE7000058000020F8B5354C0546A07C3B
:10549000A84201D10020F8BD31484FF0FF366B46DD
:1054A000D0E900104FF001020979007835B3FCF71C
:1054B00081FF70BB9DF800006B4620F020008DF846
:1054C000000020680122017960680078FCF7FFFF86
:1054D000F8B90320FEF7B6FA02208DF8000094F820
:1054E000220078B382202BE020686B460122017DE8
:1054F00060680078FCF7EBFF58B92EE0FCF75AFF24
:1055000038B9A07AC0079DF8000003D040F0200011
:1055100002E00CE020F020008DF8000020686B46CF
:105520000122017960680078FCF7D1FF08B13046AC
:10553000F8BD0320FEF786FA94F8220000B180201F
:105540008DF8000094F823000028CDD09DF80000CD
:1055500040F030008DF80000C6E7A5749AE700001F
:105560005800002038B51C4C94F8241081421DD0FE
:10557000002500B394F82500D0B1002000F0D6F942
:105580000020FFF781FFE08C00F0C6F88DF8005096
:1055900060686B46012200782321FCF798FF012008
:1055A00084F8240000F0C2F9FFF712FE002038BD95
:1055B0004FF0FF3038BD002000F0B8F9207C8DF8A6
:1055C000000060686B46012200782321FCF77FFF12
:1055D00084F82450E8E700005800002038B5194C42
:1055E0004FF0FF35A17A31B3FA2809D0B0F5FA7F30
:1055F00008D0B0F57A7F0FD0B0F5FA6F1BD10DE06F
:10560000002000E008208DF80000207A9DF80010AE
:10561000B0EBD10F04D005E01020F4E71820F2E73A
:10562000002038BD20686B460122817960680078CF
:10563000FCF74DFF08B1284638BD9DF80000C008B2
:105640002072EDE75800002038B5174C054694F855
:105650002300A84201D1002038BD0DB1302000E068
:1056600000208DF80000A07C28B19DF8000040F0DB
:1056700002008DF8000094F8220028B19DF8000087
:1056800040F080008DF8000020686B460122017D0B
:1056900060680078FCF71BFF10B14FF0FF3038BD99
:1056A00084F82350D7E700005800002038B5194C83
:1056B0004FF0FF35A17A31B3BC2801D3012010E0AF
:1056C000622801D302200CE02A2801D3032008E03D
:1056D000142801D3042004E00A2801D3052000E0A7
:1056E00006208DF80000E07A9DF80010884201D174
:1056F000002038BD20686B46012281786068007800
:10570000FCF7E5FE08B1284638BD9DF80000E072C0
:10571000EEE7000058000020F8B51E4D04464FF09B
:10572000FF37A87A48B395F8240030BB287D4FF4A2
:105730007A7648B164B1282C03D8E0B2FFF77AFC3E
:1057400026E00020FFF776FC042C05D2042406E0B6
:105750000020FFF76FFCF9E7B44200D93446B6FBEE
:10576000F4F0401E8DF8000028686B460122417855
:1057700068680078FCF7ABFE08B13846F8BD9DF8C4
:105780000000401CB6FBF0F0E8814008FFF78EFFF8
:105790000020F8BD58000020F8B5054610F0700F45
:1057A0004FF0000601D0012004E015B18DF8006033
:1057B00002E040208DF80000244C6B460122206856
:1057C000817C60680078FCF782FE4FF0FF3760BB99
:1057D0009DF8000020F0400020738DF800606806FE
:1057E00002D404208DF80000A80605D49DF800001E
:1057F00040F002008DF80000E80605D49DF8000096
:1058000040F001008DF80000280705D49DF8000045
:1058100040F038008DF8000020686B460122C17C02
:1058200060680078FCF753FE10B1A6723846F8BDE8
:1058300025B1082D02D00020FFF706FFA5722675BE
:105840003220FEF7FFF80020F8BD000058000020CD
:10585000F8B516000D464FF0FF371FD0104CA17A57
:10586000E1B1010A8DF80010C0B28DF801004119B4
:1058700060684289914211D8216800786B46097EA0
:105880000222FCF724FE48B92068EAB23346417D83
:1058900060680078FCF71BFE002800D03846F8BD91
:1058A00058000020002800DA4042704710B588B048
:1058B000694604A8FFF73CFD072802D0012008B084
:1058C00010BD07A8FFF758FA0498FAF700FF0799E8
:1058D0000C46FAF7E1FCFAF719FF04900598FAF77D
:1058E000F6FE2146FAF7D8FCFAF710FF0590069865
:1058F000FAF7EDFE2146FAF7CFFCFAF707FF06901C
:1059000004A8FEF767FB03A8FFF7FAF9BDF80C003F
:10591000009941430091019941430191029941430A
:1059200068460291FEF7B8FA0020C8E7F8B5144CB3
:105930000146224694F82460D2E9000200235D1E4D
:1059400056B179B1022111E0C17B10786B4601227A
:10595000FCF7BDFD68B90EE0A67A56B111B1617CC5
:1059600061B902E08DF80030EEE701218DF80010FA
:10597000EAE72846F8BD9DF8000060740020F8BDF5
:10598000580000202DE9F04106460F46FBF754F879
:10599000041E0D4618BF0120284320F00040C0F12E
:1059A0007F6000F1E040C00F0ED0301C18BF012016
:1059B000384320F00040C0F17F6000F1E040C00FAC
:1059C00004BF0120FDF794FA20462946BDE8F08186
:1059D0002DE9F74F82B0DFF8F4803B4800900026B5
:1059E00098F80000374FDFF8E890DFF8E8A03A4C6D
:1059F0003546012808D099F80000012804D037481E
:105A0000C4E90C05E56224E04FF07E5B5946606B0B
:105A1000FAF7EAFB6063584507D1DDE90201084463
:105A2000FFF740FFFAF753FEE0622D48E16AFAF70C
:105A300065FC2C492063884202DB2B49884200DD4B
:105A4000216398F8000001281AD099F80000012875
:105A50001BD065623946606AFAF7D4FE00D26762ED
:105A600055465046616AFAF7CDFE00D265621F487E
:105A7000007801280FD01E48007801280BD00CE0D8
:105A8000216B606AFAF7B0FB03E0216B606AFAF7FA
:105A9000FDFB6062DEE74FF07C5631460498FAF772
:105AA000FBFB0546606A009980F00040FAF7F4FBC2
:105AB0002946FAF7EBFBA06205B0BDE8F04FFAF714
:105AC00025BE00000000C842000020413F00002029
:105AD000400000200000C8C2900000206666663FBB
